:020000040800F2
:10000000F808002031020008732B00089D26000824
:10001000712B0008550700086D3000080000000033
:10002000000000000000000000000000772B000826
:10003000E107000800000000752B0008792B00087C
:100040004B0200084B0200084B0200084B0200085C
:100050004B0200084B0200084B0200084B0200084C
:100060004B0200084B0200084B0200084B0200083C
:100070004B0200084B0200084B0200084B0200082C
:100080004B0200084B020008210600084B02000842
:100090004B0200084B0200084B0200084B0200080C
:1000A0004B0200084B0200084B0200084B020008FC
:1000B0004B020008252C00084B0200084B020008E8
:1000C0004B0200084B0200084B0200084B020008DC
:1000D0004B020008413000084B0200084B020008A8
:1000E0004B0200084B0200084B0200084B020008BC
:1000F0004B0200084B0200084B0200084B020008AC
:100100004B0200084B0200084B0200084B0200089B
:100110004B0200084B0200084B0200084B0200088B
:10012000590700084B0200084B0200084B02000868
:100130004B0200084B0200084B0200084B0200086B
:100140004B0200084B0200084B0200084B0200085B
:100150004B0200084B0200084B0200084B0200084B
:100160004B0200084B0200084B0200084B0200083B
:100170004B0200084B0200084B0200080000000080
:100180004B0200084B02000800F002F800F041F8B2
:100190000AA090E8000C82448344AAF10107DA45E2
:1001A00001D100F036F8AFF2090EBAE80F0013F0F3
:1001B000010F18BFFB1A43F001031847E03100009C
:1001C00000320000103A24BF78C878C1FAD852072C
:1001D00024BF30C830C144BF04680C6070470000C1
:1001E0000023002400250026103A28BF78C1FBD840
:1001F000520728BF30C148BF0B607047642900F028
:10020000EF80002070471FB503F0B2F81FBD10B596
:1002100010BD00F0D3F91146FFF7F5FF02F084FF9F
:1002200000F0F1F903B4FFF7F2FF03BC02F04CFF5A
:100230000948804709480047FEE7FEE7FEE7FEE77A
:10024000FEE7FEE7FEE7FEE7FEE7FEE704480549B6
:10025000054A064B70470000152C0008890100086C
:10026000F8020020F8080020F8040020F80400201C
:10027000704753EA020C00F069802DE9F04B4FF013
:100280000006002B1FBFB3FA83F503FA05F424FA26
:1002900005F65E4012BF1643B2FA82F502FA05F483
:1002A000C5F120051EBF22FA05FC44EA0C042035E6
:1002B00056EA044C4FEA144418BF641C4FF000087F
:1002C0004FF00009904271EB030C39D3002919BF9C
:1002D000B1FA81F701FA07F6B0FA80F700FA07F6EB
:1002E000C7F120071EBF20FA07FC46EA0C0620379C
:1002F000B6FBF4FCA7EB0507103F07F01F0BCBF193
:1003000020060CFA0BFB2CFA06F644BFB346002677
:10031000202FA4BF5E464FF0000B5BEA060C08BF1F
:100320004FF0010B19EB0B09ABFB027C48EB060805
:10033000C01B06FB02CC0BFB03CC71EB0C01C1E72D
:100340000B46024641464846BDE8F08B13B54FF0D8
:1003500000004FF00001AFF30080BDE81C40704783
:100360000FB4044910B503AA029800F0F9F810BCC4
:100370005DF814FB200000202DE9F0410E460446F4
:10038000002020622046E168884730B3252805D048
:10039000D4E901219047206A401CF2E7E168204639
:1003A00000278847050018D0A5F14100192802D878
:1003B00020354FF400673246294620462760FFF774
:1003C0001DFF40B1012804D0F61D26F007060836AF
:1003D000D8E7361DD6E72846DAE7206ABDE8F0817F
:1003E0002DE9F0410646002410687529314616A50E
:1003F00010D0AFF30080002802DA404213A507E0D6
:1004000031688A0701D512A502E0490704D511A574
:10041000012401E0AFF3008000210A2206F1240745
:1004200009E0B0FBF2FCB0FBF2F302FB1C00303041
:1004300078541846491C0028F3D123462A463046F2
:10044000BDE8F04100F033B8000000002D000000CE
:100450002B000000200000004FF0000200B5134602
:1004600094469646203922BFA0E80C50A0E80C50D4
:10047000B1F12001BFF4F7AF090728BFA0E80C5085
:1004800048BF0CC05DF804EB890028BF40F8042B7E
:1004900008BF704748BF20F8022B11F0804F18BFEB
:1004A00000F8012B704770477047704770472DE97F
:1004B000F0470D4699469246044600F1240801682B
:1004C000880604D5E06921F01001216000E00120D8
:1004D000A84201DD471B00E00027A1697A1902EB61
:1004E0000900081AA0612078C00602D42046AFF3A4
:1004F0000080002608E0D4E901211AF806009047A0
:10050000206A401C761C20624E45F4DB2078C00631
:100510000AD52046AFF3008006E0D4E9012130205F
:100520009047206A401C2062381EA7F10107F4DCC6
:1005300007E0D4E9012118F805009047206A401C23
:100540002062281EA5F10105F3DC2046AFF30080F0
:100550002078000602D50220BDE8F0870120FBE7E5
:10056000074B70B50D467B4400F011F80446284651
:1005700000F020F810B14FF0FF3070BD204670BD84
:10058000AB2B000001694A1C02610878704700B576
:100590008FB0CDE901310021059105497944CDE9BC
:1005A000031011466846FFF7E7FE0FB000BD0000DC
:1005B000E5FFFFFF007B00F080007047754600F00C
:1005C0002BF8AE4605006946534620F007008546E5
:1005D00018B020B5FFF73AFEBDE820404FF0000606
:1005E0004FF000074FF000084FF0000B21F007011B
:1005F000AC46ACE8C009ACE8C009ACE8C009ACE85E
:10060000C0098D46704710B50446AFF30080204600
:10061000BDE81040FFF706BE004870479402002076
:10062000014800F0AAB9000030000020464910B58A
:100630004A6822F440324A604A6843681A434A6072
:1006400001684A6822F480724A6001684A68036956
:1006500042EA03224A6001684A6822F040724A6016
:1006600001684A6883681A434A6001688A6822F40C
:1006700000628A6001688A68C3681A438A60816A76
:100680006FF07062D14201688A6822F070628A60FD
:1006900001688A680CD0836A1A438A6001688A6894
:1006A00022F040528A6001688A68C36A1A4301E0F6
:1006B00022F040528A6001688A6822F002028A6051
:1006C00001688A68037E42EA43028A6090F820103B
:1006D000002901684A680FD042F400624A6001684C
:1006E0004A6822F460424A6001684A68174C436ACB
:1006F00004EB43331A4301E022F400624A600168CC
:10070000CA6A22F47002CA620168CA6A838B104CFA
:1007100004EB03531A43CA6201688A6822F4007228
:100720008A6001688A6890F8303042EA43228A6021
:1007300001688A6822F480628A6001688A68406978
:1007400042EA8020886010BD0023014000E0FFFFE6
:100750000000F0FFFEE70000014800F0BDBB000014
:100760007800002001681823CAB2103AB2FBF3F2F5
:10077000054B6FF30901032A9B5CC36500D9091D72
:1007800081650846704700007A33000810B50146BD
:1007900000208B698A6A4FF0C07453B1B3F5005FD3
:1007A00015D072B1012A0CD0022A0AD0032A09D12D
:1007B00004E01AB1012A06D0022A03D1C96AC9018C
:1007C00000D5012010BDC96AA142FAD010BD002A8F
:1007D000F7D0012AF2D0022AF3D0032AF3D010BDB9
:1007E000704772B6FEE700001FB569460090012011
:1007F00001900720029000200390084800F012F8B2
:10080000064800F027FA0A21044800F0CDF9034811
:1008100000F0B0F804B080B210BD0000300000203D
:100820007047000078B50024009490F83C20012A1D
:1008300019D0012280F83C200A6807230568092A9C
:1008400013D9EE680A3A02EB420293409E43EE60EF
:100850000B788A680A3B03EB43039A400368DD6820
:100860002A43DA6010E0022078BD2E6902EB4202D2
:1008700093409E432E610B788A6803EB43039A40B2
:1008800003681D692A431A614A681F23072A13D285
:1008900005686E6B521E02EB820293409E436E63AC
:1008A0000B790A885B1E92B203EB83039A400368BC
:1008B0005D6B2A435A6327E005680D2A12D22E6B1E
:1008C000D21F02EB820293409E432E630B790A886B
:1008D000DB1F92B203EB83039A4003681D6B2A432C
:1008E0001A6311E0EE6A0D3A02EB820293409E43D6
:1008F000EE620B790A880D3B92B203EB83039A40B8
:100900000368DD6A2A43DA62164B0568144A9D4281
:1009100006D10D68122D03D1556845F48005556048
:1009200005689D4218D10B68102B01D0112B13D1F3
:10093000536843F400035360096810290CD10A4935
:100940000A4A0968B1FBF2F101EB8101490000E0BC
:10095000491E00910029FBD180F83C40002078BD61
:1009600000230140002001401400002040420F00FD
:10097000704770470068C06C704770B504460068E7
:100980000668456816F0020F05F020012AD049B329
:10099000216CC90603D4216C41F400712164816883
:1009A00011F0405F17D1217EA9B9C16A11F4700F0F
:1009B00002D0816849050ED4416821F020014160D0
:1009C000206C20F480702064206CC00403D4206C60
:1009D00040F0010020642046FFF7CAFF21686FF055
:1009E0001200086016F0040F05F0800132D089B3C0
:1009F000206CC00603D4206C40F4005020642068B2
:100A0000816811F4401F1ED1816B11F4401F02D088
:100A10008168490517D44168490514D4816811F0EB
:100A2000405F10D1217E71B9416821F080014160A1
:100A3000206C20F480502064206CC00503D4206C0E
:100A400040F0010020642046FFF7EAFE21686FF0C5
:100A50000C00086016F0010F05F040010FD071B1D5
:100A600020680068C0070AD0206C40F48030206401
:100A7000204600F043F821686FF00100086016F08E
:100A8000200F05F080610ED000290CD0606C40F082
:100A90000200606420686FF0200505602046FFF7C3
:100AA00068FF2068056070BD70B504004FF0000558
:100AB00003D0206C002610B107E0012070BD204655
:100AC00000F01EF8666484F83C60206CC00610D408
:100AD000206C20F4885040F0020020642046FFF78C
:100AE000A5FD6664206C20F0020040F00100206447
:100AF00000E0012584F83C60284670BD7047000086
:100B000070B586B0064614216846FFF7A5FC21495A
:100B1000306888423CD120480025016841F480714A
:100B20000160006800F4807005901B48143801686B
:100B300041F0010101600068694600F00100059084
:100B4000202000900320CDE90105144800F010FB9F
:100B5000144C1348C4E900050015A560C4E903500E
:100B6000400060618000A0614011C4E90705204693
:100B7000656200F081FA08B1FFF733FEB46300222A
:100B800011461220A66300F0EFFD122000F0DEFDFA
:100B900006B070BD00200140443802400000024011
:100BA00010640240780000202DE9F04104460068FE
:100BB0000D4681684FF0000749050BD58068C005D8
:100BC00008D5206C40F02000206484F83C7001209F
:100BD000BDE8F08100F0CAFB064613E0681C11D0A6
:100BE00025B100F0C3FB801BA8420BD92068006828
:100BF000800707D4206C40F00400206484F83C7027
:100C00000320E5E7206800688007E7D521686FF0DA
:100C100012000860206C40F4007020642068816835
:100C200011F0405F13D1217E89B9C16A11F4700FB0
:100C300002D0806840050AD4206C20F480702064C3
:100C4000206CC00403D4206C40F00100206400201C
:100C5000BEE7000018B50021009190F83C20012A61
:100C600007D0012280F83C2002689368DB0702D09D
:100C700011E0022018BD936843F0010393602E4AEF
:100C80002E4B1268B2FBF3F202EB420200E0521E5E
:100C90000092002AFBD102689368DB0742D0036C04
:100CA00040F20164A34343F48073036453685B051B
:100CB00005D5036C23F4005343F480530364036CA1
:100CC000DB0404D5436C23F00603436400E0416475
:100CD00080F83C101A496FF02203136049680068DD
:100CE000CA06184906D0884224D1816811F0405FB5
:100CF00013D01FE08842F8D0134A904203D1D1F8B4
:100D00000423D206F1D0114A904213D1D1F8041332
:100D100001F01F011029E8D30CE0816841F0804107
:100D2000816007E0016C41F010010164416C41F009
:100D300001014164002018BD1400002040420F0052
:100D40000023014000200140002101400022014019
:100D500070B54379012B1CD0012646710223037123
:100D600005682B6802F0100440F6FE72A24093431F
:100D7000D1E900210A43A2401A432A6001680A68A7
:100D8000C023A3409A430A600671002141710846BE
:100D900070BD022070BD70B5040003D0207900251D
:100DA00010B105E0012070BD6571204600F008F823
:100DB00002202071256101202071002070BD0000FB
:100DC00010B586B0044614216846FFF745FB11496B
:100DD000206888421CD110480021026842F000526D
:100DE0000260006800F0005005900B48103802685F
:100DF00042F001020260006800F00100059010203E
:100E000000900320CDE901016946044800F0B0F9E3
:100E100006B010BD0074004040380240000002409F
:100E20002DE9F0410446876D00F0A0FA064694F8DB
:100E300035000025022806D08020606584F83450F3
:100E40000120BDE8F0812068016821F016010160F1
:100E50002068416921F080014161206C08B9A06CD3
:100E600020B12068016821F0080101602068016854
:100E700021F0010101600CE000F078FA801B0528E8
:100E800007D920206065032084F8350084F83450A9
:100E9000D7E720680068C007EED194F85C103F20C7
:100EA0008840B860012084F8350084F83450002070
:100EB000C7E790F83510022903D080214165012051
:100EC0007047052180F835100068016821F00101A4
:100ED00001600020704700002DE9F84304464FF000
:100EE0000009CDF8009063484FF41651A56D0068D5
:100EF000B0FBF1F72E6894F85C10082000FA01F1BD
:100F000031420FD021680A6852070BD50A6822F0D7
:100F100004020A6094F85C108840A860606D40F09C
:100F20000100606594F85C104FF0010808FA01F0C8
:100F3000304208D021684969090604D5A860606D6F
:100F400040F00200606594F85C1004208840304254
:100F500008D021680968890704D5A860606D40F051
:100F60000400606594F85C1010208840304218D06E
:100F700021680968090714D5A86020680168490339
:100F800004D50068000308D5A16C07E00168C90515
:100F900003D4016821F008010160216C09B12046E9
:100FA000884794F85C1020208840304231D0216876
:100FB0000968C9062DD5A86094F835000528206871
:100FC000016806D0490347D5006800031DD4616C51
:100FD0001CE021F0160101602068416921F08001C8
:100FE0004161206C08B9A06C20B12068016821F033
:100FF0000801016094F85C103F208840A86084F8E4
:10100000358084F83490216D1FE0E16B09B12046F2
:101010008847606D00282BD0606DC00714D0052074
:1010200084F835002068016821F001010160009812
:10103000401C0090B84203D820680068C007F6D171
:1010400084F8358084F83490E16C002910D001B028
:101050002046BDE8F04308470168C905D5D40168BA
:1010600021F01001016084F8358084F83490CCE7D9
:10107000BDE8F883140000202DE9F041044600F09B
:1010800075F906465CB1022084F83500002584F825
:1010900034502068016821F0010101600DE0012059
:1010A000BDE8F08100F062F9801B052805D92020F9
:1010B0006065032084F83500F2E720680068C00707
:1010C000F0D12268116820480140D4E90103184397
:1010D000D4E903363343184363691843A3691843BB
:1010E000E3691843236A18430843616A042903D15A
:1010F000D4E90B1319430843106020684069666AFD
:1011000020F0070130460E43012704280CD1A06AC5
:101110000643E06A40B12046FFF738FB20B140208B
:10112000606584F83570BAE7206846612046FFF7AD
:1011300019FB94F85C203F2191408160656584F83B
:1011400035700020ACE700003F8010F070B5044619
:1011500000F00CF90546601C02D0044800780444F5
:1011600000F004F9401BA042FAD370BD0800002033
:101170002DE9F84FDFF8BCA10022012503264FF02E
:101180000F090AF1040BAAF1040E00BF0B6805FA5F
:1011900002F42340A34270D10F7907F00307012F17
:1011A00001D0022F16D187684FEA420806FA08FCE0
:1011B00027EA0C07D1F80CC00CFA08FC4CEA070C23
:1011C000C0F808C04768A7430C79C4F300149440E2
:1011D0003C4344600C79E443A4070AD0C4684FEA56
:1011E000420C06FA0CF7BC438F6807FA0CF727434A
:1011F000C7600C7904F00304022C12D1D40800EB70
:10120000840CDCF820405707FF0E09FA07F824EA9F
:101210000804D1F8108008FA07F848EA0408CCF866
:10122000208004684FEA420C06FA0CF7BC430F79A1
:1012300007F0030707FA0CF7274307604C6814F41C
:10124000403F70D03C4C276847F4804727602468B3
:1012500022F0030704F480440094384C07EB040C9C
:10126000DCF8084897074FEA177809FA08F7BC43F3
:10127000334FB84202D1002724E054E0314FB84246
:1012800001D101271EE0304FB84201D1022719E0F9
:101290002E4FB84201D1032714E02D4FB84201D19F
:1012A00004270FE02B4FB84201D105270AE02A4F4F
:1012B000B84201D1062705E0284FB84201D10727DF
:1012C00000E0082707FA08F72743CCF80878DAF88F
:1012D00000405746D1F804C09C435FEACC2C00D5AF
:1012E0001C433C60DBF800405F46D1F804C09C43DF
:1012F0005FEA8C2C00D51C433C60DEF8004077464A
:10130000D1F804C09C435FEA8C3C00D51C433C6090
:10131000084F083F3C68D1F804C09C435FEACC3CCE
:1013200000D51C433C60521C102AFFF42FAFBDE8CF
:10133000F88F0000083C0140443802400030014072
:10134000000002400004024000080240000C02407D
:10135000001002400014024000180240001C02402D
:101360000AB1816170470904FBE700000148806809
:10137000704700000800002070B5040025D094F8E4
:101380003D00002520B984F83C50204600F04EF97D
:10139000242084F83D002068016821F001010160EB
:1013A0002068016841F4004101602068016821F46F
:1013B0000041016000F0A4FA4D4A6168914201D8F1
:1013C0004C4900E04C49884201D2012070BD4B4994
:1013D0002368B0FBF1F15E6826F03F060E435E60C5
:1013E0006368934206D94FF4967359434FF47A7366
:1013F000B1FBF3F12368491C1E6A26F03F06314316
:1014000019626168914210D84900401EB0FBF1F2A8
:10141000521CC2F30B02042A01D2042022E0B0FBCA
:10142000F1F0401CC0F30B001CE0A268F2B301EB2A
:10143000C10303EB0116431EB3FBF6F35B1C43F43D
:1014400080431B0549D092B301EBC10202EB0111AD
:10145000401EB0FBF1F0401CC0F30B0040F4804094
:1014600040F400402168CA694CF6FF739A43104368
:10147000C861D4E9071001432068026822F0C00265
:1014800011430160D4E9030101432068826848F2F6
:10149000FF339A4311438160D4E905010843216871
:1014A000CA6822F0FF021043C86001E00EE016E0B7
:1014B0002068016841F0010101602564202084F862
:1014C0003D00256384F83E50002070BD01EB4106CD
:1014D000431EB3FBF6F35B1CB3E70120C2E701EB4D
:1014E0004101401EB0FBF1F0401CC0F30B00B7E718
:1014F000A086010080841E0000093D0040420F00CC
:101500002DE9F84F1F4690468A460446DDF828909C
:10151000FFF72CFF054694F83D0020287FD11923C2
:10152000012240492046009501F044F9002876D177
:1015300094F83C00012872D0012084F83C00206817
:101540000168C90703D1016841F001010160206809
:10155000016821F400610160212084F83D00102021
:1015600084F83E0000262664C4F824806785608DD8
:1015700020852D48E0622B464A465146204601F020
:10158000A5F890B9206841698069009036E02A4644
:101590004946204601F08DF950B1206C042804D151
:1015A0002068016841F4007101600120BDE8F88FF6
:1015B000606A216800780861606A401C6062618D21
:1015C000491E6185218D491E89B221852268536992
:1015D000DB435B070BD451B100781061606A401C9B
:1015E0006062608D401E6085208D401E20852A46E9
:1015F0004946204601F0B8F80028CED1208D0028B9
:10160000C5D154F83D0B016841F400710160202000
:1016100004F81E09E67766770020C7E7FFE7022097
:10162000C4E70000020010000000FFFF10B586B004
:10163000044614216846FEF70FFF144920688842CB
:1016400021D113480021026842F0020202600068C2
:1016500000F0020005904FF4407000901220CDE998
:101660000101032003900420049069460948FFF714
:101670007FFD07481030016841F4001101600068E7
:1016800000F40010059006B010BD000000540040AA
:101690003038024000040240024881680278114458
:1016A00081607047080000200B4810B5016841F4C4
:1016B00000710160016841F480610160016841F4DA
:1016C00080710160032000F06FF80F2000F006F831
:1016D00000F024F8002010BD003C024070B50D4D14
:1016E00004464FF47A712878B1FBF0F00A49096892
:1016F000B1FBF0F000F016FB48B9102C07D2002225
:101700002146501E00F030F800206C6070BD0120B2
:1017100070BD000008000020140000200A4808B531
:10172000016841F480410160006800F4804000904D
:101730000548001F016841F080510160006800F019
:101740008050009008BD000044380240002809DBAA
:1017500000F01F02012191404009800000F1E020CB
:10176000C0F8001170470000F0B40E4B1B680C4627
:10177000C3F30223C3F10705042D00D90425191D65
:10178000072901D2002300E0DB1E012606FA05F13D
:10179000491E214099409E40761E16403143F0BCC0
:1017A00001F082BC0CED00E0064900F00702086879
:1017B0004FF6FF03184040EA0220034A1043086036
:1017C000704700000CED00E00000FA052DE9F0473D
:1017D0000E46050065D0DFF81481D8F80000F7B296
:1017E00000F00700B04207D288F80070D8F8000077
:1017F00000F00700B04254D128683D4C810712D553
:10180000400703D5206840F4E050206028780007A6
:1018100003D5206840F4604020602068A96820F06B
:10182000F000084320602878C0072DD03049686850
:101830000839012812D0022813D0032811D00968D2
:10184000890700292DDA216821F003010143216075
:10185000FFF78CFD814641F2883A0EE00968890362
:10186000EFE709688901ECE7FFF780FDA0EB0901CC
:10187000514502D90320BDE8F0872068696800F06F
:101880000C00B0EB810FEFD1D8F80010404601F00A
:101890000701B14207D90770006800F00700B042A5
:1018A00001D00120E7E72878400705D52068E968DE
:1018B00020F4E050084320602878000706D520680F
:1018C000296920F4604040EAC100206000F038F847
:1018D0002168084AC1F30311515CC84006490860F9
:1018E00006480068FFF7FAFE0020C4E7003C02400B
:1018F0000838024082330008140000200C00002049
:101900000448054900680968044AC1F38221515C12
:10191000C840704714000020083802409233000885
:101920000448054900680968044AC1F34231515C22
:10193000C840704714000020083802409233000865
:10194000154810B5006810F00C02144813D041106F
:10195000042A0FD0082A0ED10F4C241F22682368B6
:1019600002F03F025B0207D52068C0F38810A0FB9D
:10197000010106E0084610BD2168C1F38811A1FBF2
:1019800000010023FEF775FC2168C1F30141491CE9
:101990004900B0FBF1F010BD083802400024F4000B
:1019A0002DE9F84F04006ED02078DFF84C93C00783
:1019B000A9F104054AD009F104000168C1F38101CD
:1019C000012908D00068C0F3810002280AD1D9F8A3
:1019D0000000400206D52868800337D560680028DB
:1019E000E1D033E06068B0F5803F10D0B0F5A02FB3
:1019F000286810D020F480302860286820F48020E7
:101A000028606068A8B1FFF7B1FC06460DE02868C1
:101A100040F48030F4E740F480202860F7E700BF0E
:101A2000FFF7A4FC801B642873D828688003F7D5CF
:101A30000CE0FFF79BFC064605E000BFFFF796FCB5
:101A4000801B6428F0D828688003F7D42078DFF85A
:101A5000AC8280074FF0000A3ED5A748001D016800
:101A600011F00C0F08D00068C0F3810002280BD1E0
:101A7000D9F80000400207D42868800716D5E0682E
:101A8000012800D112E033E1E068B8B10120C8F8C4
:101A90000000FFF76BFC064605E000BFFFF766FCA1
:101AA000801B0228C0D828688007F7D528682169DC
:101AB00020F0F80040EAC10028600DE0C8F800A05E
:101AC000FFF754FC064604E0FFF750FC801B022899
:101AD0001FD828688007F7D42078000722D5864FC2
:101AE00087486169703771B101210160FFF73EFCE1
:101AF000064604E0FFF73AFC801B022809D8386844
:101B00008007F7D50EE0C0F800A0FFF72FFC0646CF
:101B100005E082E0FFF72AFC801B02287DD83868A8
:101B20008007F7D42078400768D5DFF8CCB10027CC
:101B30000BF13C0BDBF80000C0000BD4DBF800100D
:101B400041F08051CBF80010DBF80000012700F0D5
:101B5000805000906B4E3068C00510D4306840F45F
:101B600080703060FFF702FC009005E0FFF7FEFB9D
:101B70000099401A022850D83068C005F6D55E4E4C
:101B8000A0686C3601280FD00528306810D020F0EE
:101B900001003060306820F004003060A068B8B107
:101BA000FFF7E4FB00900FE0306840F00100F4E73D
:101BB00040F004003060F7E7FFF7D8FB0099411AC6
:101BC00041F28830814266D830688007F4D50EE053
:101BD000FFF7CCFB009007E0FFF7C8FB0099411A24
:101BE00041F28830814256D830688007F4D42FB152
:101BF000DBF8001021F08051CBF80010A069C8B3C9
:101C00003D49091D0968C1F3810102294AD0022812
:101C1000504607D0C8F8600000E03CE0FFF7A6FBA4
:101C200004463BE04746C8F86000FFF79FFB0646C6
:101C300005E000BFFFF79AFB801B02282BD828681D
:101C40008001F7D4D4E907010843A16A2E4A490864
:101C500002EB0141626A41EA8211084394F82C10B8
:101C600040EA0161C9F8001001203866FFF77EFBE9
:101C7000044606E03EE000BFFFF778FB001B0228A9
:101C800009D828688001F7D534E000BFFFF76EFB64
:101C9000001B022802D90320BDE8F88F28688001C4
:101CA000F4D427E00128F7D0D9F80000E26900F465
:101CB000800191421CD1226A00F03F01914217D16C
:101CC00047F6C071626A0140B1EB821F10D1A26A6F
:101CD0004FF0FF3300F4403103EB5202B1EB024FFF
:101CE00006D194F82C1000F07060B0EB016F01D0B9
:101CF0000120D1E70020CFE704380240000047422E
:101D0000800E4742007000400000FFFF4FF0E021CE
:101D10000428086903D020F004000861704740F0EF
:101D20000400FAE710B5401EB0F1807F01D3012016
:101D300010BD4FF0E02460610F21601701F0B4F98D
:101D40000020A06107202061002010BD704770476F
:101D500070B590F83C20012A32D0012480F83C4034
:101D6000022280F83D2003685A689D6822F07006C0
:101D70000A6832435A60134B02689A4214D0B2F197
:101D8000804F11D0104B9A420ED0104B9A420BD07C
:101D90000F4B9A4208D00F4B9A4205D00E4B9A42F5
:101DA00002D00E4B9A4204D1496825F080031943B2
:101DB000916080F83D40002180F83C10084670BDDD
:101DC000022070BD000001400004004000080040F7
:101DD000000C004000040140004001400018004099
:101DE00010B5040003D094F83D0010B107E00120C5
:101DF00010BD002084F83C00204600F01FF80220AF
:101E000084F83D00211D206800F012FF012084F8B5
:101E1000460084F83E0084F83F0084F8400084F8CF
:101E2000410084F8420084F8430084F8440084F8B8
:101E3000450084F83D00002010BD000008B5006892
:101E40000B49884212D10B48016841F00201016040
:101E50000068032200F00200009002211D20FFF71D
:101E600083FCBDE808401D20FFF770BC08BD0000E2
:101E7000000400404038024090F83D10012901D094
:101E800001207047022180F83D100168CA6842F0C5
:101E90000102CA6000681149884214D0B0F1804F35
:101EA00011D00F4988420ED00E4988420BD00E49FE
:101EB000884208D00D49884205D00D49884202D099
:101EC0000C49884204D1816801F00701062903D03A
:101ED000016841F0010101600020704700000140ED
:101EE0000004004000080040000C004000040140D5
:101EF00000400140001800400168CA6822F0010259
:101F0000CA6001680A6A41F211131A4207D10A6ACB
:101F10009B101A4203D10A6822F001020A600121D3
:101F200080F83D100020704770B5044690F83C00E2
:101F30000025012817D0012684F83C60022084F88F
:101F40003D002068826822F0770222F47F4282609E
:101F50000868502838D00DDC20284FD005DC90B31D
:101F6000102811D14AE0022070BD302846D0402808
:101F70000AD13BE060282FD070280DD0B0F5805FEB
:101F800003D0B0F5005F12D0012584F83D60002039
:101F900084F83C00284670BDCB68D1E90121206857
:101FA00000F0AAFE2068816841F0770109E0CB6863
:101FB000D1E90121206800F09FFE2068816841F48A
:101FC00080418160E1E719E0CA684968206800F053
:101FD000A5FE5021206806E0CA684968206800F024
:101FE000AEFE6021206800F091FECEE7CA68496825
:101FF000206800F093FE40212068F4E72268014643
:102000001046F0E7704770B50446006801694FF06C
:102010000005C943890715D4C168C943890711D48C
:10202000E91E016101202077206880698007204631
:1020300002D0FFF7E7FF04E000F098F8204600F038
:1020400096F8257720680169C943490717D4C16804
:10205000C943490713D46FF00401016102202077BE
:102060002068806910F4407F204602D0FFF7CAFF45
:1020700004E000F07BF8204600F079F8257720682E
:102080000169C943090716D4C168C943090712D4B5
:102090006FF008010161042020772068C069800783
:1020A000204602D0FFF7AEFF04E000F05FF82046C4
:1020B00000F05DF8257720680169C943C90617D487
:1020C000C168C943C90613D46FF01001016108202B
:1020D00020772068C06910F4407F204602D0FFF7C7
:1020E00091FF04E000F042F8204600F040F8257728
:1020F00020680169C943C90708D1C168C943C90734
:1021000004D1891E0161204600F032F8206801697F
:10211000C943090609D4C168C943090605D46FF04B
:10212000800101612046FFF711FE20680169C94363
:10213000490609D4C168C943490605D46FF0400176
:102140000161204600F062F820680169C9438906F0
:102150000BD4C168C943890607D46FF0200101611F
:102160002046BDE87040FFF7F2BD70BD7047704774
:10217000F8B50026009600681E49884239D11E4CE9
:102180006068401C60600520FEF72EFB0546014696
:102190001A4801F0CBF8194840F6B2124168914252
:1021A00008DB0268914205DB8068814202DB20681F
:1021B000401C20608DF80150280A8DF800004FF671
:1021C000FF73022269460E4800F00EFA606844F67A
:1021D000206188420DD366600AA02168FEF7C0F82E
:1021E000094926606FF00100096808610648FFF799
:1021F00083FEF8BD00040040000000202400002001
:102200005002002025640000400100207047704704
:10221000704710F83D1F407808437047F8B50168D3
:1022200004460868CA684B6910F00F0F4FF00005AC
:1022300059D003F0010602F49077374365D0C10707
:1022400005D0D10503D5216C41F00101216441077E
:1022500005D5D90703D0216C41F002012164810723
:1022600005D5D90703D0216C41F004012164010791
:1022700007D502F02001314303D0216C41F0080161
:102280002164216C00293AD0800604D5900602D53D
:10229000204600F095FD20684069216CC0F3801055
:1022A000090700D460B3204600F063FD2068406950
:1022B000400621D52068143050E8001F21F040016D
:1022C00040E80012002AF5D1A06BA8B16C49016565
:1022D000A06BFEF7EEFD002811D0A06B016D01B0E0
:1022E000BDE8F040084783060FD593060DD520467C
:1022F000BDE8F84000F064BD2046FFF789FFF8BD57
:102300002046FFF785FF2564F8BD266B2023012EAC
:1023100079D1C60677D5D60675D508684868009085
:102320004869400640D5A16B086840680004000C6D
:10233000EAD0A28D8242E7D9E085C869B0F5807FF6
:102340002DD020680C3050E8001F21F4807140E847
:102350000012002AF5D12068143050E8001F21F047
:10236000010140E80012002AF5D12068143050E83D
:10237000001F21F0400140E80012002AF5D184F846
:102380003E30256320680C3050E8001F21F010011A
:1023900040E80012002AF5D1A06BFEF741FDA08DA8
:1023A000E18D401A81B229E0A08DE18D401A81B201
:1023B000E08D0028A8D00029A6D020680C3050E875
:1023C000002F22F4907240E80026002EF5D12068FC
:1023D000143050E8002F22F0010240E80026002EC1
:1023E000F5D184F83E30256320680C3050E8002F8A
:1023F00022F0100240E80023002BF5D12046FFF721
:1024000006FFF8BDFFE705062BD5150629D594F87C
:102410003D002128F5D1A068B0F5805F01D1206989
:10242000B0B1206A411C2162216800784860E08CCC
:10243000401E0004000CE084E3D12068C16821F054
:102440008001C1602068C16841F04001C160D8E7E7
:10245000206A0088C0F308004860206A801C20625F
:10246000E5E74006CDD55006CBD5CA68204622F018
:102470004002CA6084F83D3000F00FF9C1E7000067
:10248000632D000870B5040004D094F83D000025C9
:1024900010B106E0012070BD84F83C50204600F0E9
:1024A00023F8242084F83D002068C16821F40051FD
:1024B000C160204600F0E4FC2068016921F49041ED
:1024C00001612068416921F02A0141612068C168E9
:1024D00041F40051C1602564202084F83D0084F857
:1024E0003E00002070BD000010B500681A4986B09B
:1024F00088422FD11948016841F00101016000684C
:1025000000F00100059015481430016841F01001F9
:1025100001600068012100F0100005904FF4007088
:1025200000900220CDE90101039007200C4C04909B
:1025300069462046FEF71CFE20150090694620469D
:10254000FEF716FE2520FFF701F9022201212520C2
:10255000FFF70AF906B010BD001001403038024004
:102560000000024090F83E30202B0ED159B152B1FC
:1025700090F83C30012B08D0012380F83C30002338
:10258000036300F003BD0120704702207047000084
:1025900030B50068114988420CD1114841880A04BD
:1025A00008D402464C0412784FF0000306D50A2ADC
:1025B00001D0438030BD41F400410DE00D2A09D027
:1025C000C1F30D04074D491C89B22A554180C72922
:1025D000EFD830BD41F48041418030BD0010014052
:1025E0001C000020880100202DE9F843044690F8E3
:1025F0003D001F4616460D4620284CD1C5B1BEB140
:1026000094F83C00012846D0012084F83C004FF0AB
:102610000008C4F84080212084F83D00FEF7A6FEA3
:10262000A6848146E684A068B0F5805F03D004E00C
:102630000120BDE8F883206928B12E465FF000052F
:1026400084F83C800EE00026FAE78021204600F066
:10265000BAFCA0B9AEB116F8010B21684860E08C55
:10266000401EE084E08C4B464FF0000200970028AB
:10267000EBD14FF04001204600F0A5FC30B1032023
:10268000D7E735F8020BC0F30800E6E7202084F80E
:102690003D000020CDE70220CBE77047FEE7016850
:1026A0004A69D24352050FD46FF480624A61002117
:1026B00040F8301F202242738173026942F0040205
:1026C000026101730120704700207047F8B504468D
:1026D000C06A1E460D461746082807D0012805D0B7
:1026E00010F5803F02D0206B122804D120680168C9
:1026F00041F480710160134600224FF00111204621
:10270000009600F057F840B120680068C00502D577
:102710004FF4007020640320F8BD2069B0F5804FAD
:102720000ED00620216800EAD51040F0F0000861C4
:1027300033463A460B49204600F070F878B902E07B
:1027400005F0FE0000E0E8B2216808610549334663
:102750003A46891F204600F061F80028DCD00120AD
:10276000F8BD00000800010070B516460D4604468D
:102770000DE02046FFF793FF08B1012070BD681CF3
:1027800005D0FEF7F3FD801BA84207D835B12068BD
:102790004069C0434007ECD4002070BD002044F8DD
:1027A000300F20216173A073216941F02001216164
:1027B0002073E2E72DE9F0471E4690460D46044699
:1027C000C1F30747DDF8209008E0701C06D0FEF743
:1027D000CDFDA0EB0900B0420FD876B12068012FE3
:1027E00018D0806925EA00000004000C14D00021F4
:1027F0004145EAD00020BDE8F087002044F8300FC2
:1028000020216173A073216941F0200121612073AF
:102810000120F0E74069E5E70121E9E72DE9F0470C
:102820009A4691460E46044600254FF02008C1F313
:10283000074725E020684069C043400514D420685C
:10284000016841F40071016021686FF480604861A3
:10285000256384F83D8084F83E50206C40F00400ED
:10286000206484F83C501FE0B9F1FF3F08D0FEF728
:102870007DFDA0EB0A0149450CD8B9F1000F09D044
:102880002068012F13D0806926EA00000004000CA4
:102890000BD0CFE744F8305F84F80D80A573206932
:1028A00040F02000206125730120BDE8F0874069D9
:1028B000EAE770B516460D4604460DE02046FFF7E0
:1028C000EEFE08B1012070BD681C05D0FEF74EFD7C
:1028D000801BA84207D835B120684069C043000674
:1028E000ECD4002070BD002044F8300F202161732B
:1028F000A073216941F0200121612073E2E73EB518
:102900000446C8B20B05002101AA1B0F53545518E9
:10291000891C68700829F9DB4FF0FF30009008230C
:10292000C0212046FEF7ECFD0821204600F001F80A
:102930003EBD03B581B04FF0FF310091012302AAE3
:102940000021FEF7DDFD0EBD1CB5582343EA410111
:1029500004468DF80410100A8DF805004FF0FF3082
:102960008DF806200090032301AAC0212046FEF71F
:10297000C7FD08212046FFF7DCFF1CBD7FB5002402
:1029800015480094019402941249039401604FF495
:102990008031C0E9011401250461057680F82040EA
:1029A0000E49C0E90A14C561C46080F83050456121
:1029B000FEF77AF808B1FDF714FF0095CDE9015450
:1029C00069460548FDF72EFF002801D0FDF709FFF5
:1029D0007FBD000000200140300000200100000FFA
:1029E0001CB500240C4900940A480194086008466C
:1029F000FEF7D1F908B1FDF7F4FE00940022694614
:102A000005480194FEF7A4F9002801D0FDF7E9FE7E
:102A10001CBD000000740040D8000020094808B523
:102A2000016841F4800101600068002200F4800028
:102A3000009011463820FEF797FEBDE80840382088
:102A4000FEF784BE3038024030B587B014216846A6
:102A5000FDF702FD1A48016841F02001016001689C
:102A600001F020010591016841F0800101600168D9
:102A700001F080010591016841F0010101600168E8
:102A800001F001010591016841F002010160006857
:102A90000C4D00F002004FF4C06405900122214665
:102AA0002846FEF75DFC01210220CDE90210CDE9A8
:102AB000004169462846FEF75BFB07B030BD0000C9
:102AC00030380240001402400D4810B50B49016037
:102AD0000C49416000214FF480428160C0E903123B
:102AE00041618161C1610162FEF746FC002803D0AB
:102AF000BDE81040FDF775BE10BD00000054004059
:102B0000EC000020A086010010B586B00024174814
:102B10000094019402940394049413490594016071
:102B20005321C0E90114C721C0E903148021816148
:102B3000FFF756F908B1FDF754FE4FF480500090AE
:102B400069460A48FFF7F0F908B1FDF74AFE049418
:102B500004A906480594FFF7FBF8002801D0FDF70B
:102B600040FE06B010BD00000004004040010020FF
:102B7000FEE7FEE770477047FEF78EBD30B593B0B5
:102B800030216846FDF768FC14210CA8FDF764FCB1
:102B90001E480025016841F080510160006800F086
:102BA000805011901A48016841F48041016000682A
:102BB000022400F480401190012000900004019054
:102BC0008001CDE90640082008904FF4A870CDE9B7
:102BD000090404200B906846FEF7E2FE08B172B6C5
:102BE000FEE70CA90F2081E831004FF4A0500F90B0
:102BF0004FF48050109005210CA8FEF7E7FD002847
:102C000001D072B6FEE713B030BD0000403802407C
:102C1000007000400248016841F470010160704793
:102C200088ED00E00148FFF7EEB900004001002008
:102C3000F0B50268254C264D264E274F274B4FF006
:102C4000804CA04209D0604507D0A84205D0B042D0
:102C500003D0B84201D0984204D122F0700E4A68E5
:102C600042EA0E02A0421BD0604519D0A84217D0FC
:102C7000B04215D0B84213D0984211D0184DA84296
:102C80000ED0184DA8420BD0174DA84208D0174DB2
:102C9000A84205D0164DA84202D0164DA84203D135
:102CA00022F44075CA682A434D6922F080022A4303
:102CB00002608A68C2620A688262A04201D09842B9
:102CC00001D10969016301214161F0BD00000140AA
:102CD0000004004000080040000C004000040140D7
:102CE00000400140004401400048014000180040FD
:102CF000001C00400020004010B5846842EA032216
:102D000024F47F440A432243826010BD826822F08B
:102D100070020A4342F007018160704710B5036AF0
:102D2000046A24F001040462846924F0F00444EA93
:102D3000021423F00A020A438461026210BD10B536
:102D4000036A23F0100303628369046A23F4704367
:102D500043EA023224F0A00343EA011182610162D6
:102D600010BD10B5806B0021C185C184FFF750FAFA
:102D700010BD01680C3151E8002F22F4907241E837
:102D80000023002BF5D10168143151E8002F22F007
:102D9000010241E80023002BF5D1016B012909D183
:102DA00001680C3151E8002F22F0100241E80023A5
:102DB000002BF5D1202180F83E10002101637047DF
:102DC00008B590F83E10222901D0022008BD826883
:102DD0004FF480539A4201D1016921B1816A9A422C
:102DE0001BD04AB10AE00268816A5268C2F3080245
:102DF0000A80816A891C08E0026972B1026852681F
:102E000002F07F020A70816A491C8162C18D491EED
:102E10000904090CC18503D019E002685268F1E782
:102E20000168CA6822F02002CA600168CA6822F4F8
:102E30008072CA6001684A6922F001024A61202159
:102E400080F83E10016B012903D0FFF7A1FB0020A1
:102E500008BD0021016301680C3151E8002F22F008
:102E6000100241E80023002BF5D101680A68D20660
:102E700002D50A6849680091818DFFF7C8F9E6E735
:102E800070B5044600680169E26821F440511143BD
:102E900001612169A068E26908436169114308433F
:102EA0002168CA6849F20C639A430243CA602068E9
:102EB0004169A26921F4407111434161314920689F
:102EC000884202D03049884202D1FEF729FD01E054
:102ED000FEF716FDE2690023192164253226B2F5BA
:102EE000004F626828D0A0FB0101930F9200FDF70C
:102EF000C0F90146B0FBF5F06FF01802504301EB4A
:102F0000800006EB0010B0FBF5F000F0F002B1FB22
:102F1000F5F002EB0012B1FBF5F06FF01803584327
:102F200001EB800006EB0010B0FBF5F000F00F00A5
:102F300021681044886070BDA0FB010192185B41BC
:102F4000FDF797F90146B0FBF5F00201B1FBF5F092
:102F50006FF01803584301EB800006EBC000B0FB94
:102F6000F5F000F0F80002EB4002B1FBF5F0584339
:102F700001EB800006EBC000B0FBF5F000F00700AD
:102F8000D6E70000001001400014014081628285F4
:102F9000C28500210164222280F83E2080F83C1086
:102FA000016921B10168CA6842F48072CA6001688F
:102FB0004A6942F001024A610068C16841F020019B
:102FC000C160002070472DE9F041984617460E4633
:102FD0000446069D27E0681C25D02DB1FEF7C6F9F2
:102FE000A0EB0800A8421ED920680C3050E8001F52
:102FF00021F4D07140E80012002AF5D12068143085
:1030000050E8001F21F0010140E80012002AF5D12C
:10301000202084F83D0084F83E00002084F83C0025
:103020000320BDE8F0812068006836EA000004D083
:103030000020B842CFD00020F3E70120F9E70000DC
:1030400010B50848FFF7EAF80648FFF7E2F820282D
:10305000FAD1012204490348FFF784FA0028F8D185
:1030600010BD0000500200201C000020FEE7000000
:103070002DE9F04106460024FEF778F9054640F6B2
:10308000B21700BFFEF772F9401BB04209DC052001
:10309000FDF7AAFBB84200DB641C322000F020F8E8
:1030A000F0E72046BDE8F0810907090E002804DB9F
:1030B00000F1E02080F80014704700F00F0000F1EC
:1030C000E02080F8141D70477047000010B50446DA
:1030D0000420FEF71BFE0148046010BD180000200C
:1030E00070B54FF0E024002265690949A3690968B9
:1030F0004843A1699942FCD002D2A3EB010302E04C
:10310000A5EB010633441A440B468242F1D370BD4D
:103110001800002003490A685206FCD5C2B24A6072
:1031200070470000001001400025FEF7BDFAFFF7D0
:1031300025FDA820FFF7CAFF4FF47A3000F0FCF815
:10314000FFF782FCFFF76AFCFFF718FCFFF748FC6B
:10315000FFF7BAFCFFF7D8FCDFF89CB1674CDFF84B
:10316000A0A1DFF8A0816FF0010900BFB8F800004E
:103170000004FBD5207850280BD16078A17801EBB2
:103180000026314660A0FDF7EBF8B1B25F48FFF7CB
:10319000B6FB207851280DD1A078E178667801EB54
:1031A0000027394658A0FDF7DBF8BAB23146574838
:1031B000FFF7CAFB2078522875D1607801283DD1ED
:1031C000A07878B900224FF480615E465846FEF739
:1031D000C7F800224FF400713046FEF7C1F84CA04A
:1031E000FDF7BEF8A07801280DD1810201225E46CC
:1031F0005846FEF7B5F8012251023046FEF7B0F806
:1032000044A0FDF7ADF8A07802281BD016E00122FB
:1032100031463846FEF7A4F86420FDF797FF0022F8
:1032200031463846FEF79CF86420FDF78FFF3AA040
:103230006D1CFDF795F8042DE9DD00256078022866
:1032400004D018E04FF480665F46E0E7A07838B914
:10325000002202213248FEF783F82DA0FDF780F806
:10326000A078012807D1012202212D48FEF778F825
:1032700028A0FDF775F86078032814D1A07838B934
:10328000002204212648FEF76BF821A0FDF768F81C
:10329000A078012807D1012204212148FEF760F817
:1032A0001CA0FDF75DF82078542807D142F2107079
:1032B000FFF7DEFE01461BA0FDF752F820784828F4
:1032C00006D1DAF80010C1F810900D48FEF7D4FDD1
:1032D0002078492806D1DAF80010C1F81090084883
:1032E000FEF70AFE104801680868C0434006FBD498
:1032F0000021A8F8001039E70014024088010020DE
:10330000400100201E00002025640A00EC0000207F
:103310006F6666006F6E00006F76657200000000D9
:10332000000402402564000050020020D0E901237F
:103330000260C0E9013170470B4910B5094AC1E983
:10334000002000208860C860086188610C20486106
:103350000846FFF797F8BDE81040012203490248EC
:10336000FFF700B900100140500200201C000020AF
:103370004FF04070E1EE100A70470006101600068C
:103380001016000000000000000001020304060700
:10339000080900000000010203040000BC3300081B
:1033A0000000002024000000C4010008E0330008F1
:1033B00024000020D4080000E00100080000000004
:1033C00000000000010000001000000000000000EC
:1033D0000024F400000000000000000000000000D5
:040000050800018965
:00000001FF
